{
  "contractName": "Insurance",
  "abi": [
    {
      "inputs": [],
      "stateMutability": "nonpayable",
      "type": "constructor"
    },
    {
      "inputs": [
        {
          "internalType": "address",
          "name": "",
          "type": "address"
        }
      ],
      "name": "claims",
      "outputs": [
        {
          "internalType": "uint256",
          "name": "",
          "type": "uint256"
        }
      ],
      "stateMutability": "view",
      "type": "function"
    },
    {
      "inputs": [
        {
          "internalType": "address",
          "name": "",
          "type": "address"
        }
      ],
      "name": "policies",
      "outputs": [
        {
          "internalType": "uint256",
          "name": "",
          "type": "uint256"
        }
      ],
      "stateMutability": "view",
      "type": "function"
    },
    {
      "inputs": [
        {
          "internalType": "uint256",
          "name": "",
          "type": "uint256"
        }
      ],
      "name": "policyholder",
      "outputs": [
        {
          "internalType": "address",
          "name": "",
          "type": "address"
        }
      ],
      "stateMutability": "view",
      "type": "function"
    },
    {
      "inputs": [],
      "name": "totalPremium",
      "outputs": [
        {
          "internalType": "uint256",
          "name": "",
          "type": "uint256"
        }
      ],
      "stateMutability": "view",
      "type": "function"
    },
    {
      "inputs": [
        {
          "internalType": "uint256",
          "name": "premium",
          "type": "uint256"
        }
      ],
      "name": "purchasePolicy",
      "outputs": [],
      "stateMutability": "payable",
      "type": "function"
    },
    {
      "inputs": [
        {
          "internalType": "uint256",
          "name": "amount",
          "type": "uint256"
        }
      ],
      "name": "fileClaim",
      "outputs": [],
      "stateMutability": "nonpayable",
      "type": "function"
    },
    {
      "inputs": [
        {
          "internalType": "address",
          "name": "policyholder",
          "type": "address"
        }
      ],
      "name": "approveClaim",
      "outputs": [],
      "stateMutability": "nonpayable",
      "type": "function"
    },
    {
      "inputs": [
        {
          "internalType": "address",
          "name": "policyholder",
          "type": "address"
        }
      ],
      "name": "getPolicy",
      "outputs": [
        {
          "internalType": "uint256",
          "name": "",
          "type": "uint256"
        }
      ],
      "stateMutability": "view",
      "type": "function"
    },
    {
      "inputs": [
        {
          "internalType": "address",
          "name": "policyholder",
          "type": "address"
        }
      ],
      "name": "getClaim",
      "outputs": [
        {
          "internalType": "uint256",
          "name": "",
          "type": "uint256"
        }
      ],
      "stateMutability": "view",
      "type": "function"
    },
    {
      "inputs": [],
      "name": "getTotalPremium",
      "outputs": [
        {
          "internalType": "uint256",
          "name": "",
          "type": "uint256"
        }
      ],
      "stateMutability": "view",
      "type": "function"
    },
    {
      "inputs": [
        {
          "internalType": "address payable",
          "name": "user",
          "type": "address"
        }
      ],
      "name": "grantAccess",
      "outputs": [],
      "stateMutability": "nonpayable",
      "type": "function"
    },
    {
      "inputs": [
        {
          "internalType": "address payable",
          "name": "user",
          "type": "address"
        }
      ],
      "name": "revokeAccess",
      "outputs": [],
      "stateMutability": "nonpayable",
      "type": "function"
    },
    {
      "inputs": [],
      "name": "destroy",
      "outputs": [],
      "stateMutability": "nonpayable",
      "type": "function"
    }
  ],
  "bytecode": "0x608060405234801561000f575f80fd5b503360035f6101000a81548173ffffffffffffffffffffffffffffffffffffffff021916908373ffffffffffffffffffffffffffffffffffffffff1602179055506113828061005d5f395ff3fe6080604052600436106100c1575f3560e01c806383197ef01161007e578063c6788bdd11610058578063c6788bdd1461024f578063d61909f91461028b578063d903d35c146102b3578063dbb773d9146102ef576100c1565b806383197ef0146101f557806385e685311461020b578063c1260c9a14610233576100c1565b80630ae5e739146100c557806320e98698146100ed5780633791dc6a146101295780634cd3723a146101655780634d21af96146101a157806373f16751146101cb575b5f80fd5b3480156100d0575f80fd5b506100eb60048036038101906100e69190610c1b565b610317565b005b3480156100f8575f80fd5b50610113600480360381019061010e9190610c81565b6103e9565b6040516101209190610cc4565b60405180910390f35b348015610134575f80fd5b5061014f600480360381019061014a9190610c81565b6103fe565b60405161015c9190610cc4565b60405180910390f35b348015610170575f80fd5b5061018b60048036038101906101869190610c81565b610444565b6040516101989190610cc4565b60405180910390f35b3480156101ac575f80fd5b506101b561048a565b6040516101c29190610cc4565b60405180910390f35b3480156101d6575f80fd5b506101df610490565b6040516101ec9190610cc4565b60405180910390f35b348015610200575f80fd5b50610209610499565b005b348015610216575f80fd5b50610231600480360381019061022c9190610c1b565b610562565b005b61024d60048036038101906102489190610d07565b6106c3565b005b34801561025a575f80fd5b5061027560048036038101906102709190610c81565b610803565b6040516102829190610cc4565b60405180910390f35b348015610296575f80fd5b506102b160048036038101906102ac9190610d07565b610818565b005b3480156102be575f80fd5b506102d960048036038101906102d49190610d07565b6109af565b6040516102e69190610d41565b60405180910390f35b3480156102fa575f80fd5b5061031560048036038101906103109190610c81565b6109e9565b005b60035f9054906101000a900473ffffffffffffffffffffffffffffffffffffffff1673ffffffffffffffffffffffffffffffffffffffff163373ffffffffffffffffffffffffffffffffffffffff16146103a6576040517f08c379a000000000000000000000000000000000000000000000000000000000815260040161039d90610db4565b60405180910390fd5b8060035f6101000a81548173ffffffffffffffffffffffffffffffffffffffff021916908373ffffffffffffffffffffffffffffffffffffffff16021790555050565b6001602052805f5260405f205f915090505481565b5f60015f8373ffffffffffffffffffffffffffffffffffffffff1673ffffffffffffffffffffffffffffffffffffffff1681526020019081526020015f20549050919050565b5f60025f8373ffffffffffffffffffffffffffffffffffffffff1673ffffffffffffffffffffffffffffffffffffffff1681526020019081526020015f20549050919050565b60045481565b5f600454905090565b60035f9054906101000a900473ffffffffffffffffffffffffffffffffffffffff1673ffffffffffffffffffffffffffffffffffffffff163373ffffffffffffffffffffffffffffffffffffffff1614610528576040517f08c379a000000000000000000000000000000000000000000000000000000000815260040161051f90610e42565b60405180910390fd5b60035f9054906101000a900473ffffffffffffffffffffffffffffffffffffffff1673ffffffffffffffffffffffffffffffffffffffff16ff5b60035f9054906101000a900473ffffffffffffffffffffffffffffffffffffffff1673ffffffffffffffffffffffffffffffffffffffff163373ffffffffffffffffffffffffffffffffffffffff16146105f1576040517f08c379a00000000000000000000000000000000000000000000000000000000081526004016105e890610eaa565b60405180910390fd5b60035f9054906101000a900473ffffffffffffffffffffffffffffffffffffffff1673ffffffffffffffffffffffffffffffffffffffff168173ffffffffffffffffffffffffffffffffffffffff1603610680576040517f08c379a000000000000000000000000000000000000000000000000000000000815260040161067790610f38565b60405180910390fd5b3360035f6101000a81548173ffffffffffffffffffffffffffffffffffffffff021916908373ffffffffffffffffffffffffffffffffffffffff16021790555050565b803414610705576040517f08c379a00000000000000000000000000000000000000000000000000000000081526004016106fc90610fa0565b60405180910390fd5b5f8111610747576040517f08c379a000000000000000000000000000000000000000000000000000000000815260040161073e90611008565b60405180910390fd5b5f33908060018154018082558091505060019003905f5260205f20015f9091909190916101000a81548173ffffffffffffffffffffffffffffffffffffffff021916908373ffffffffffffffffffffffffffffffffffffffff1602179055508060015f3373ffffffffffffffffffffffffffffffffffffffff1673ffffffffffffffffffffffffffffffffffffffff1681526020019081526020015f20819055508060045f8282546107f99190611053565b9250508190555050565b6002602052805f5260405f205f915090505481565b5f60015f3373ffffffffffffffffffffffffffffffffffffffff1673ffffffffffffffffffffffffffffffffffffffff1681526020019081526020015f205411610897576040517f08c379a000000000000000000000000000000000000000000000000000000000815260040161088e906110f6565b60405180910390fd5b5f81116108d9576040517f08c379a00000000000000000000000000000000000000000000000000000000081526004016108d090611184565b60405180910390fd5b60015f3373ffffffffffffffffffffffffffffffffffffffff1673ffffffffffffffffffffffffffffffffffffffff1681526020019081526020015f2054811115610959576040517f08c379a000000000000000000000000000000000000000000000000000000000815260040161095090611212565b60405180910390fd5b8060025f3373ffffffffffffffffffffffffffffffffffffffff1673ffffffffffffffffffffffffffffffffffffffff1681526020019081526020015f205f8282546109a59190611053565b9250508190555050565b5f81815481106109bd575f80fd5b905f5260205f20015f915054906101000a900473ffffffffffffffffffffffffffffffffffffffff1681565b60035f9054906101000a900473ffffffffffffffffffffffffffffffffffffffff1673ffffffffffffffffffffffffffffffffffffffff163373ffffffffffffffffffffffffffffffffffffffff1614610a78576040517f08c379a0000000000000000000000000000000000000000000000000000000008152600401610a6f906112a0565b60405180910390fd5b5f60025f8373ffffffffffffffffffffffffffffffffffffffff1673ffffffffffffffffffffffffffffffffffffffff1681526020019081526020015f205411610af7576040517f08c379a0000000000000000000000000000000000000000000000000000000008152600401610aee9061132e565b60405180910390fd5b8073ffffffffffffffffffffffffffffffffffffffff166108fc60025f8473ffffffffffffffffffffffffffffffffffffffff1673ffffffffffffffffffffffffffffffffffffffff1681526020019081526020015f205490811502906040515f60405180830381858888f19350505050158015610b77573d5f803e3d5ffd5b505f60025f8373ffffffffffffffffffffffffffffffffffffffff1673ffffffffffffffffffffffffffffffffffffffff1681526020019081526020015f208190555050565b5f80fd5b5f73ffffffffffffffffffffffffffffffffffffffff82169050919050565b5f610bea82610bc1565b9050919050565b610bfa81610be0565b8114610c04575f80fd5b50565b5f81359050610c1581610bf1565b92915050565b5f60208284031215610c3057610c2f610bbd565b5b5f610c3d84828501610c07565b91505092915050565b5f610c5082610bc1565b9050919050565b610c6081610c46565b8114610c6a575f80fd5b50565b5f81359050610c7b81610c57565b92915050565b5f60208284031215610c9657610c95610bbd565b5b5f610ca384828501610c6d565b91505092915050565b5f819050919050565b610cbe81610cac565b82525050565b5f602082019050610cd75f830184610cb5565b92915050565b610ce681610cac565b8114610cf0575f80fd5b50565b5f81359050610d0181610cdd565b92915050565b5f60208284031215610d1c57610d1b610bbd565b5b5f610d2984828501610cf3565b91505092915050565b610d3b81610c46565b82525050565b5f602082019050610d545f830184610d32565b92915050565b5f82825260208201905092915050565b7f4f6e6c7920746865206f776e65722063616e206772616e74206163636573732e5f82015250565b5f610d9e602083610d5a565b9150610da982610d6a565b602082019050919050565b5f6020820190508181035f830152610dcb81610d92565b9050919050565b7f4f6e6c79206f776e65722063616e2064657374726f792074686520636f6e74725f8201527f6163742e00000000000000000000000000000000000000000000000000000000602082015250565b5f610e2c602483610d5a565b9150610e3782610dd2565b604082019050919050565b5f6020820190508181035f830152610e5981610e20565b9050919050565b7f4f6e6c7920746865206f776e65722063616e207265766f6b206163636573732e5f82015250565b5f610e94602083610d5a565b9150610e9f82610e60565b602082019050919050565b5f6020820190508181035f830152610ec181610e88565b9050919050565b7f43616e6e6f74207265766f6b6520616363657373206f6620746865207365636f5f8201527f6e6420757365722e000000000000000000000000000000000000000000000000602082015250565b5f610f22602883610d5a565b9150610f2d82610ec8565b604082019050919050565b5f6020820190508181035f830152610f4f81610f16565b9050919050565b7f496e636f7272656374207072656d69756d20616d6f756e742e000000000000005f82015250565b5f610f8a601983610d5a565b9150610f9582610f56565b602082019050919050565b5f6020820190508181035f830152610fb781610f7e565b9050919050565b7f5072656d69756d206d7573742062652067726561746572207468616e20302e005f82015250565b5f610ff2601f83610d5a565b9150610ffd82610fbe565b602082019050919050565b5f6020820190508181035f83015261101f81610fe6565b9050919050565b7f4e487b71000000000000000000000000000000000000000000000000000000005f52601160045260245ffd5b5f61105d82610cac565b915061106883610cac565b92508282019050808211156110805761107f611026565b5b92915050565b7f4d757374206861766520612076616c696420706f6c69637920746f2066696c655f8201527f206120636c61696d2e0000000000000000000000000000000000000000000000602082015250565b5f6110e0602983610d5a565b91506110eb82611086565b604082019050919050565b5f6020820190508181035f83015261110d816110d4565b9050919050565b7f436c61696d20616d6f756e742073686f756c64206265206772656174657220745f8201527f68616e20302e0000000000000000000000000000000000000000000000000000602082015250565b5f61116e602683610d5a565b915061117982611114565b604082019050919050565b5f6020820190508181035f83015261119b81611162565b9050919050565b7f436c61696d20616d6f756e742063616e6e6f742065786365656420706f6c69635f8201527f792e000000000000000000000000000000000000000000000000000000000000602082015250565b5f6111fc602283610d5a565b9150611207826111a2565b604082019050919050565b5f6020820190508181035f830152611229816111f0565b9050919050565b7f4f6e6c7920746865206f776e65722063616e20617070726f766520636c61696d5f8201527f732e000000000000000000000000000000000000000000000000000000000000602082015250565b5f61128a602283610d5a565b915061129582611230565b604082019050919050565b5f6020820190508181035f8301526112b78161127e565b9050919050565b7f506f6c696379686f6c64657220686173206e6f206f75747374616e64696e67205f8201527f636c61696d732e00000000000000000000000000000000000000000000000000602082015250565b5f611318602783610d5a565b9150611323826112be565b604082019050919050565b5f6020820190508181035f8301526113458161130c565b905091905056fea2646970667358221220b4829bf48ab49cd8af6319c4092fa79f37c0dba50cf7d8ce658f90e46b9fb2f664736f6c63430008150033",
  "immutableReferences": {},
  "source": "// SPDX-License-Identifier: UNLICENSED\r\npragma solidity ^0.8.19;\r\ncontract Insurance {\r\n    address[] public policyholder;\r\n    mapping(address=>uint256) public policies;\r\n    mapping(address=>uint256) public claims;\r\n    address payable owner;\r\n    uint256 public totalPremium;\r\n\r\n    constructor() public {\r\n        owner=payable(msg.sender);\r\n    }\r\n\r\n    function purchasePolicy(uint256 premium) public payable{\r\n        require(msg.value==premium, \"Incorrect premium amount.\");\r\n        require(premium>0,\"Premium must be greater than 0.\");\r\n        policyholder.push(msg.sender);\r\n        policies[msg.sender]=premium;\r\n        totalPremium+=premium;\r\n    }\r\n    function fileClaim(uint256 amount)public {\r\n        require(policies[msg.sender]>0,\"Must have a valid policy to file a claim.\");\r\n        require(amount>0,\"Claim amount should be greater than 0.\");\r\n        require(amount<=policies[msg.sender],\"Claim amount cannot exceed policy.\");\r\n        claims[msg.sender]+=amount;\r\n    }\r\n\r\n    function approveClaim(address policyholder) public{\r\n        require(msg.sender == owner, \"Only the owner can approve claims.\");\r\n        require(claims[policyholder]>0, \"Policyholder has no outstanding claims.\");\r\n        payable(policyholder).transfer(claims[policyholder]);\r\n        claims[policyholder]=0;\r\n    }\r\n    function getPolicy(address policyholder) public view returns (uint256) {\r\n        return policies[policyholder];\r\n    }\r\n\r\n    function getClaim(address policyholder) public view returns (uint256) {\r\n        return claims[policyholder];\r\n    }\r\n\r\n    function getTotalPremium() public view returns (uint256){\r\n        return totalPremium;\r\n    }\r\n\r\n    function grantAccess(address payable user) public{\r\n        require(msg.sender==owner, \"Only the owner can grant access.\");\r\n        owner=user;\r\n    }\r\n\r\n    function revokeAccess(address payable user) public{\r\n        require(msg.sender==owner, \"Only the owner can revok access.\");\r\n        require(user!=owner,\"Cannot revoke access of the second user.\");\r\n        owner=payable(msg.sender);\r\n    }\r\n\r\n    function destroy() public{\r\n        require(msg.sender==owner,\"Only owner can destroy the contract.\");\r\n        selfdestruct(owner);\r\n        \r\n    }\r\n}",
  "sourcePath": "C:\\Users\\HP\\OneDrive\\Desktop\\SmartContract\\contracts\\contract.sol",
  "compiler": {
    "name": "solc",
    "version": "0.8.21+commit.d9974bed.Emscripten.clang"
  },
  "schemaVersion": "3.4.16",
  "updatedAt": "2023-11-20T14:35:22.555Z",
  "devdoc": {
    "kind": "dev",
    "methods": {},
    "version": 1
  },
  "userdoc": {
    "kind": "user",
    "methods": {},
    "version": 1
  }
}